:020000040000FA
:0600000050EF3EF012007B
:0600080004EF08F01200F5
:060018000CEF08F01200DD
:0610000050EF3EF012006B
:021006001200D6
:061008002BEF33F0120093
:02100E0020328E
:0110100030AF
:021011000000DD
:0410130000000000D9
:0110170000D8
:0610180082EF33F012002C
:02101E000B00C5
:101020005D7E00002D02000013000000C27D000064
:10103000600000009B000000BE7D00005C0200001C
:1010400004000000BB7D00006302000003000000FC
:1010500017100000BF0E000001000000317D0000ED
:10106000000E00008A0000000F7D0000CC0100008F
:10107000220000000D7D00006A0200000200000056
:1010800013100000FA04000004000000067D0000B8
:101090005502000007000000111000006802000067
:0410A000020000004A
:0C10A4000094ED1E7C00A19C65EC0C4744
:1010B0008211840C50AF45390059BEC92D0134F35B
:1010C000078C034BFA2C750EF85B22560500F7D3FC
:1010D00040057973039D05AEA247780CD9A5DA5F68
:1010E000017A66E64108E3F8F9450238DAB86D0896
:1010F0000427093D00DE9B97C804FD925F7202C47D
:101100004799860DF4546B28095505AD7B0FAFB890
:10111000014E0EF1F8FA450D44867DA20943AEBF9B
:10112000E10BC5CD424E0859F362A70DB57171139D
:1011300000469395A105B52285290226B7E49406B9
:1011400006230D6F04B1D659E902835B7614055569
:101150001015E40C0E749AE5090CE17F2607787FE0
:10116000C12F079906A77503E6C548E302E2E2200E
:10117000D004A52AC1CE04451353D6036FD1A99C30
:1011800004671A52910B2EB3CADD0CB6F596BC005B
:1011900005314BB904E8BD78D20140F6C00E0AFF14
:1011A000995F130A09CEDCE70D8A91C6D504C440C5
:1011B00025070C558678DC0815A7E0D20F93D3BD20
:1011C000120B347FA2C709678FBA0D0DD82D7B652E
:1011D0000A5793768A0A7AEB243305ED9D1F510F47
:1011E00007BF2E64005504439B04EB6CAB890829B0
:1011F000E5309C0AA408B9140B867DA5BF076F8152
:10120000319409D6E28C020EB6951ADB00935D2864
:10121000140EE70173A4057DEC670B0A9DD8C3FE8D
:101220000FB5FA48250A8E7E302006B2B0159B0015
:101230002DC039560B1AD628560E7BAA7E4D0E6944
:10124000C424D20F22FC659E0CA0B23B6004BD9169
:10125000295E0DE96049EB09B90F17B6083E037C1A
:101260001E09F0514A760F17EB563E0787E7220119
:10127000088BF52C3707AD91AD3F04BF789A9901E3
:10128000EF92A5FD06734DBC7D0122AFC7210B89EE
:1012900095BA7101E712D75101D5AB6CD00E463922
:1012A0003DF1010913E11E0DF1681C6D0E84E38E02
:1012B00011052DB96F4D0808FD7EC90C50D43301BE
:1012C0000C6AEF7A2C045F99FBA0067425D56501A2
:1012D0000C9877030DEE092243099738A1DE0F59C8
:1012E000DFE2E60080393CF9019B9E5AB80941E5EE
:1012F00025030B19399D1B021D5C925B02A3C203DF
:1013000019075E1558EB0E58504DAD0AAC4EAA8128
:1013100008BA698B3A0E158586700D9AC4BC3F01D8
:10132000DE04CC8203FDFD73620538747131002147
:10133000C111250094F6228509B2A337E40585C7BB
:10134000328D0FC135D65902C7405B760B16D3825A
:10135000950495CF72D40BA0CBE7B106AEF97FC14F
:101360000FC21904A709BA27C548034362622001C6
:10137000A5E72AC30A6E450AD306496FC9A9080C16
:10138000641C550163AC354D0D06B2EC160EAA0176
:101390002BCB081CE93D850219C2F63907F03F85C1
:1013A000680631CD4ED10FCD0A97F005C744C02154
:1013B000004FD58074040AB5A56C0EDF93532D0041
:1013C000481439A20759638FBA0F6DD8293D060A10
:1013D00057933008D3FAEA2402BC2D9A1D0DFF0B57
:1013E0007E3304129DA77D0B15278B210B88804629
:1013F000B005ABCDE979052A8FD9250726266CAA39
:1014000004697B411402CF1B709A0BB05E7AA8046A
:10141000AF22E07304F5D8486703DB343BC3020F07
:101420005C5CFA0DB9439FF600477E5703010080CC
:101430006139061BD372DA0E1DB24BBE074CA56391
:101440002C02FE8B1D650E3EE835B700B5F5502920
:101450000E5DC0E7490BA890CE1706687787FC0E93
:10146000F8B9904A068F3E6C540E36AE262201081B
:10147000C272AC07A6E450AD0F6496FC9A0580E6F4
:1014800051970496DAC7BC05520B6F4101EAC55269
:10149000AC0381CE92650D21922F7100EF0FF83DC4
:1014A0000973A0966D06FED8259C075C27C4220B05
:1014B000848F586B05C2A1567E01AFF939B30B8CEE
:1014C000C8CBF80675FB78FA08C75D8FD70DC2A5A3
:1014D00075F7099D4AAEA603385ED9A1061F70773D
:1014E00062064129DA3C09B1523CC50898880029B6
:1014F00005ECB0DE8D0342B4F01209F26A6BC3084A
:10150000365374580B5C71F7410FBB01A3EA034AD1
:10151000F2E2C708C7FD420603355345BC0F6957C1
:10152000C5CC03DA50F9F302A470B57101100F4471
:10153000A30561BC372207397CA8B705840D0632A4
:101540000D6E6FB1D608A22F835B065ADBD502045D
:10155000B41D0E740EFB0E0E510A2746787F01BE95
:101560000C1904063932E6C508A2EEE26201514FB9
:10157000272A032BE8C50A02A788698308D9CB6309
:10158000D00F90E2ACB3078C82B6EC07EF6B052B63
:1015900009F99BE53D0453D8C2F60FDE5773830E5D
:1015A000C7D3094E01266A8A91071425C44001C990
:1015B000EAD586050D6B15A70C537891E301D92B5D
:1015C00034BF0216FEE78F0BDC8CD82D0D95AE577D
:1015D0009701F8317AEA04E2236D9A0C301E01B4C7
:1015E0000FA5F59B290F5AB4238D0B582C8042016F
:1015F0004D4A0DE90BD58C43D9047EC7A66003C4C0
:10160000EEF3450FE20E1F740A9A375AFA09556E27
:101610002EE003F5715448065A1A343B03BF887E06
:10162000EC0964FA479F067BC09B570240C1846166
:1016300009179FD37209175CB24B0E1CCA4063098D
:10164000833F8D5704DFF9EEFF072134F550090F72
:10165000D9C0E708BA6990CE05F7EF7B870D5F39EF
:10166000B99008A628B26C055ED7AE2602C0AFC2FC
:10167000720DF647E4500DEEC016FC0B4861C651E2
:10168000053CB1387B0DBC316B6E01BA4D20520D5B
:101690006A60CE930790859C2F0D110C0FF80D20DA
:1016A000D5A0940CCF9DDEA30DACBB4ACE02D025B5
:1016B000E5580F9C6CA15A0F18CCF93501C02BAF1F
:1016C0004B0BED94967809F0515182068581A579EE
:1016D00007421A27AE0302F95ED9018F9B707B0384
:1016E000B78029DA0CB83650880BF95988040358AA
:1016F0004D30DE0AC083B4FD021A766A6602588550
:1017000097F408BAAA71F700FC7A03E50BC08DF4D0
:1017100024077BCE5D4406213DB3430D6E21F7C502
:101720000CC3D3B47902236471B5013110084603A8
:101730009560BB3D0285697DAE07E4D0CA36028D57
:101740002FEE030459E3E28309760B53D502C561FA
:10175000DC0E05CE7A890C017B6687780FC1EF0D10
:101760009304A768F56C0548E36CD30220108A94B3
:1017700008C37A6A4508D3F24DEF09F9180C650BD6
:101780000F1163AC03C7DD86B60C16BE2C330BCB32
:10179000B81A5E05759295820FCDCFFC3C03DF171A
:1017A0003E4A0ED1E04D8A01C6D4C4C400E9BCCE85
:1017B00055073C3D8A150725365D2302F9FBCA34DF
:1017C0000F6B61D9670E73EC6BD20CB4B00CDD07F4
:1017D000B998D27A08ED9409ED0BD400FF070E6694
:1017E000E0929D02875A15230DE20D0A3003795FBE
:1017F000AB0D09F092AB4F086C7E20EC0178506F76
:10180000B505C733CF1F04535BB05A0BE1D4AF2EDD
:101810000073A4F5D40A670ADD3E09C3FE09F60C7D
:1018200098A53D760E66EF41A80713118084013913
:10183000569DE10228569901037ECDCC800A2813DB
:10184000FECB0D6599BEE805B761B5F500E1FADD9F
:10185000C006810AA8900EDE12EAC70635FDF8B967
:101860000083D00F3E0D9D6F30A407EBE50E4802BC
:101870006596A6E4026498E8960D537880C601ED5B
:1018800079963A0A74BCD06B0E88EF681003F5782D
:1018900081CE039ED7A19C0E2511E94509743575AB
:1018A000EA04A49F7CD80955ED5C4C054BD184E536
:1018B000086F4DC8A10A7EC82BF30533018A290B96
:1018C000FA2C73A608FBA1D06C0B57354CA500F67B
:1018D000E391670EA243385E0BA1DA193009E2E604
:1018E00047E909BC1DBD520B5A5894C804A2E9CA65
:1018F000B00F9A7142B40D925BF26A04031940D79B
:101900000658EF2A7107112DBB050EFA414AF20E57
:10191000073ACF5D0486703B8703BC3FE6420DCC9F
:10192000025E3401F2E2A8F10D70B11D08061395B4
:1019300061BD07228569FB04B7E4D2FC0E320D229B
:101940002809D7D9EF2E0B5AF6061F050295E5DCBC
:101950000E749EBA890CE17B60B60034416381014C
:10196000CF07E4B906C548E36A0B6000168C0D2A60
:10197000217A6A0D0A53F00903C98BD8120D9AF720
:10198000D3E30431E7DB060CECF3BEA205A8EBB809
:101990001C053D54D20702F6C90EF00D83D7117213
:1019A0000B4ED5E18D0A9042D5C40479A5184E0995
:1019B00086F41C8409981392D00F4CCFE4FB0DBC25
:1019C00062C3520F0A1A0CBA0105BD508A0E99B0B3
:1019D0003592026B9033450483BDE57F0F3C6E6406
:1019E000D205219B9BD5038DAB8DF80A42DC1CA34D
:1019F0000DE9A1942B0FD929B92C046031986906FF
:101A0000C56EB20F0E95FADBB006FA8B14B2042045
:101A10007A25160448630BDB0DBA23FECF045D283C
:101A200025FB0F39B2260703579315000C60BD56EE
:101A3000DB0BF40AD65F0A4B7EC95504632956BEF8
:101A40000F1D659A7E081D3760B505F8895E5D0C2F
:101A5000E7496BA60CEA17B6710787FC98F2099064
:101A60004AF0C50E6C5488350E2622074B0E728440
:101A700077BB0C502D365406FF1A99800ED1057F86
:101A8000960ACB3C7DD003ECE16DEA0052B8BB81F5
:101A90000C93D755610E2F68D4AF0EF9B9F17301CD
:101AA000AD291E8808A91C6DA90C440611730558A0
:101AB0006F4B4209F83A49ED03343601880BE9BE11
:101AC0002CB50C79F0A0D2019D28154A0579770E26
:101AD000820DAFA9433902D98BDE020C5BE2E642EC
:101AE00005DA3CB9B20A385AB858008623098A097F
:101AF000DC9B91020EFC985BB2066603194C0BF45A
:101B000058EB330BF64AADBA05AFAA851502EE07BE
:101B10003E0F0D4486707D0F43967FFD07C5CC8236
:101B2000530C7973626409377133A40247019541FC
:101B3000073632056D0326B7E994048432802F02FC
:101B4000B0C459E1048248760A0754829825048C6F
:101B50007493BA030DF27B620F78FFCCEF0B9904FC
:101B6000A76803E6C54CFC08E262AC100C272AC348
:101B70007A0F45CEDEFC096FC8A9980C651A5B6127
:101B800003ACB347D706B6EC168F0206AB47B200DC
:101B9000E916750C01425ECF8E087DA3DB1708089D
:101BA0005451EF0D09B1C6D508C46AA1060E55827D
:101BB000F4DC0815AFE8D20D935734580A353BA230
:101BC000C7095E0BBA0D01C7D28164035457743242
:101BD0000AFF4A25E40CC55A196106017E22640AEF
:101BE0001C07CF5B0C3A2DAF09000206B05C010C5C
:101BF000CBB91C03CF7925BF0723C0379E017EA533
:101C00008E7207B9F016DB085A7AAC14072F64738A
:101C1000640D526B67CB03343B47E70B7C5DCC65AF
:101C20000B479F362A0733D713110CA061394F0396
:101C3000D3722C640FB24BF84700C39CE8D70E8BCD
:101C400019456E02E835F7510DF5D4299E05C16797
:101C500045AB00914E1BB600F72BFCDE003830463A
:101C60003607BFCC588E07ADA622010941D2AC374A
:101C70000EC4D4A8200C365C9FC600C651A97F06AE
:101C80003ACB3838006B6EC56E02A052383109CE9F
:101C900090539B059C2F6C500B0FF83D7103201047
:101CA000E99E0CD92D1C6D0E4C440E9106E558EBA7
:101CB0004D0821FF7EC90D7891B3010CA34F7A2CFA
:101CC00005967C7BA0068D05556400F4FD75B30F69
:101CD000762AA4090A0F5CAD9E0DA1FF6EE601F9FC
:101CE0007DBE4801839CD8080A59A0250308617B62
:101CF00097D10065591E5B023AE181A806C6705A69
:101D00005B0EA07347E709542AA6C108A36A8B3A61
:101D10000F8DE304C10D62E7BE8F022661CA880100
:101D200065DCFF2206A011FD310058C1912401ECB1
:101D3000B720350BAAA4B1AE049D87328D0FB931FF
:101D4000D65903EE835B760B5F5506A405DC0EF2D5
:101D5000940A8908E17B06877C7FC10D8B9D02A7D1
:101D60000AF3E2C348016A626EA0020C872CC30B1F
:101D70006E850EF20748AFCDC9080C651A5F016386
:101D8000ACB744050636E5660EA9852BCB009C4909
:101D9000BFF50219C2F6CD0672DB85DF07320D4EA4
:101DA000D105CD8A958607C4C04461094FD186F418
:101DB0000DB3D1A71802DF9353C508CA30BF55072A
:101DC0005967893005CF9CADBD0E0B0417740170A7
:101DD0003EEAE40984B41A190DE0F87E2404129D49
:101DE000AED001147A0DAA0588B6822D008B0DE9BC
:101DF000BA082B4F992607262660F10CEB7F45CEBB
:101E00000BCD1F745A01B1027AE808AF2EE07908B1
:101E1000F5D4487801DA6DBBC20E0F7C5897053BAC
:101E2000479B760A471B57D30D00B36124061BD38B
:101E300072280E9F324BBE05CEC0619C08FFEB9D01
:101E400045043FB735B308B7F55D6906DFC0EA4919
:101E500001A9F04E150C691607FD06F9399D8A0E89
:101E60000D3E61540437CFA6260908427FAC07A671
:101E7000E450AD0F6496F8850B80C6DDA50D163ACB
:101E8000CB3C0CD0ABE3CB0BEAA052CD0B81CE9375
:101E9000A501219C2F1F00EF0FFC8D093BA09DADDC
:101EA0000E7F58A91C05DCECC6820184E5586F053D
:101EB0004A855C7E092DFD3533038CA34FBA0E7520
:101EC000967CBB01D75182D704796979770F9D62DF
:101ED0006EBC033856DD220E1FF07D68044129D602
:101EE000BC0BB152341A0948600423099A3CDE9BAA
:101EF000088954795203B9EA6203014717F098033D
:101F0000AC5175C1053921ABAA014AF6EE07084F5D
:101F10005D40C602BDB347FC0EE177C5CC036A70D5
:101F200079F302A471B57103100842990561B937BC
:101F30002204393B24400CD4CC06C4052F6CB19646
:101F400009E3EE87DB0E895F51820FE4500E6407D0
:101F5000AA4908610B66877C6401EF8B9D9E076828
:101F6000F3E6C508E36AE26200108C272A037A6E62
:101F7000450A03F6496FC909980C651A0FD163AC7D
:101F8000B307DD06B6EC06BEAA052B0BB81CE93D6F
:101F9000051219C2F60D0EF0FF830F1732094E011C
:101FA000E7CD8A9106D5C4C44001184E558604DC9D
:101FB0008A15A70C92DF93530018CA34BF02C75981
:101FC000678F0A0D6DD82D0D540A57970039D27AB4
:101FD000EA043385ED9A0DE1FF07BE0E64129DA35E
:101FE0000F9B15238D0B89888042009CAB0DE90067
:101FF00014EB4E590DBFA6ABE00916697BC504B3BF
:10200000439F6402DB30573A0096AF2A6009A579F6
:10201000544C0F0B5B30BB09FF83FC5D0025BB4AB2
:102020001F0A2A7BDB490A91E0007E095613D3720E
:1020300008569BB24B0E4D48C09608D2FE8BEA0C58
:102040009EFEE8F50B60B5B566005C1DCD6703EA42
:102050003A10EE0FB66C7318061F63399106760FAF
:102060003E73048E32AE26020108C272043726E4A3
:102070009005BD64920800981946710FFC8E3ACF06
:10208000047FD0662E09E9EAAD5206BA184E910DCA
:1020900050BA9C2E04D16F02380573732D94071F1C
:1020A000E7D8AD0C6D5C4C440A1104E8580F4DC8DC
:1020B000A15A0EC92DFD2A01018CAF4B0A2C759631
:1020C000780AF013DD8207D5442579070399A7AE76
:1020D00002433CDED9018E9872CC02B7C52B6F0E3D
:1020E000A83554B208E91D85C401584E3D9E0B41E8
:1020F000E5364A028A5668D301C8E291FE0A3A8957
:10210000FC37037C1F88EF0AD1CD7059076BCB5F7A
:10211000F1042139B5090E6E65FA050ED3D73939A8
:1021200003B203F30201E0B40AF30144C5BB3D006E
:1021300054CCF6E4053570414602DDA86A0606086F
:1021400067EC3609278F591F00C460D1CE06CF3EF9
:10215000044C01ABC105CF0F104F892C0676C8F592
:10216000EC0599426AE202F1B08C270AC37A6E4507
:102170000AD3F64D2F09A9988A2F025F5167DA0B0F
:10218000E65D0AF604173EA6C503CA3810690D7647
:102190009219C20E4DAE727F03DF1732090653C388
:1021A000CB8A01C6D1C4C40221184A1504F4DC8EBE
:1021B0005506ED12DF930209D8CA340FA2C759673A
:1021C0000FBA0969590D7D540CDD0F7039527A062A
:1021D000247505F0031D21FD8707AC21926A03CF0A
:1021E0009899A90DAB89844A0831272B05083A74C0
:1021F0002B4F0525F926BB08B134E4BF018EB94B3E
:102200009F001ADFB4DA08F89CA9EE032360F314E8
:1022100008E6AFDF340B7A5E0BFC0CC825BD4D0F12
:10222000362E419107131604DB0139579D99022878
:102230005E99810B7E4D4A720F28EA7E960D659E4F
:102240003EE805B760B5F502295A50400549EBA5AF
:10225000100C9712643705FC9EF4F902CBD683FE6E
:102260000E550E3A2E06A3A108C202ADB7A6E40091
:10227000AD3BE0E60C9A9984F701A5FD163A033FC1
:10228000FD5C610642CB66EA0BBE9B85CE09D69A01
:10229000A198076C50EB4F043DC8B33E0C6DB67E61
:1022A00058019E4D584C0E03DF04ED08EC6DC8A19B
:1022B000067EF06DE70533058CA309FA2471D60A72
:1022C000FBA4D29D02D65140A5094E879D2702BD91
:1022D000BCC46E00A21E1BFB03674640FE031439FC
:1022E000B5D201DC7894880CA2ADCA700782314661
:1022F0003405101F72AA0C02CF469F0CD84B2CF14C
:1023000006C40DBD0F07AB614A3206A1BE435D0C8A
:1023100086F0B9B30BBDBBE0370D4AA0D37401F30F
:10232000622068017130944802139565FD070A0523
:1023300069FB041F44D4CC0A168D2FF101D659E74E
:10234000EE035B760F1F05029563D60E749EBCC329
:102350000CE17BE0B7087FC1E9FF05049B68ED0F46
:10236000C588E1EA0BE065907D072AC0F764050A9D
:10237000D3FA4305C84A980404993FD16300B3FCDB
:102380005D180E6CB632EA012BC03C9C0D3D7116F7
:102390009900A64508300CD31B11F209CF75E3E96B
:1023A0000A2866D1610440219E440586F0DA0005C2
:1023B000A7EB96800353319E8004BFA2C159078FBB
:1023C000BA0BED072D7D540A0094ED1E7C08A91C64
:1023D00064780C440218E10A586F4DC80094ED1E51
:1023E0007C08A91C647C03440211840094ED1E7CCB
:1023F00008A91C64380C440218E10A586F4DC80043
:1024000094ED1E7C08A91C643C03440211840094D2
:10241000ED1E7C08A91C65F80C440219610A586F6E
:102420004DC8608040C00000000040E82840003EE9
:1024300000000000000430F2FE0858303018181F69
:102440001F10E803CA03AC038E0370035203340366
:102450001603F802DA02BC029E0280026202440203
:1024600026020802EA01CC01AE019001720154017A
:1024700036011801FA00DC00BE00A00082006400F2
:10248000460028003F38322D2823201C191614112D
:10249000100E0C0B0A090807060504030201CDA360
:0424A000B1673000F0
:0C24A400D9CFE6FFE1CFD9FFE652010ED0
:1024B000DF6E37C4AAF138C4ABF1580E27EC1AF01E
:1024C000C750040B01E0010EF0EC19F0F9E1C580F2
:1024D000C5B0FED732EC1AF0AAC1E6FF2EEC1AF016
:1024E000ABC1E6FF26EC3DF0E552DF500AE0C582C5
:1024F000C5B2FED7310EBFEC19F00009F6E1DF6A74
:10250000F4D70101AC6B400EAC5D15E26CEC3EF013
:10251000E66E0101AC51F5EC19F0AC5D05E1C58A40
:10252000C588C5A805D0FDD7C59AC588C5B8FED74A
:102530000101AC2BE8D7C584C5B4FED7C750040B46
:1025400001E0010EF0EC19F0F9E15C0E27EC1AF055
:102550009BEC19F0D6EC19F002E1000E04D0AFECC0
:1025600019F001E0010E0009F5E1E552E552E7CF6F
:10257000D9FF12000101010EAD6F37C4AEF138C4AE
:10258000AFF1580E27EC1AF0C580C5B0FED732EC7B
:102590001AF0AEC1E6FF2EEC1AF0AFC1E6FF26EC52
:1025A0003DF0E5520101AD510BE0C582C5B2FED749
:1025B000310EBFEC19F00009F5E10101AD6BF2D766
:1025C000B06B400EB05D15E26CEC3EF0E66E0101C2
:1025D000B051F5EC19F0B05D05E1C58AC588C5A814
:1025E00005D0FDD7C59AC588C5B8FED70101B02B67
:1025F000E8D7C584C5B4FED7C750040B01E0010E6F
:10260000F0EC19F0F9E15C0E27EC1AF09BEC19F0F4
:10261000D6EC19F002E1000E04D0AFEC19F001E0A5
:10262000010E0009F5E1120037C4B1F1E0EC1DF034
:10263000B1C1E6FFD00E2BEC1AF0B1C1E6FF070ED8
:10264000D0EC19F0A6EF19F037C4B2F1E0EC1DF0B0
:10265000B2C1E6FFD90EB6EC19F0B2C1E6FFDA0E50
:102660002BEC1AF0B2C1E6FF060ED0EC19F0A6EF83
:1026700019F037C4B3F137C4E6FF0A0ED0EC19F0F5
:10268000A6EF19F037C4B4F1E0EC1DF0B4C1E6FFD9
:10269000CF0E2BEC1AF0B4C1E6FF080ED0EC19F007
:1026A000A6EF19F037C4B5F1E0EC1DF0B5C1E6FFB7
:1026B000CE0E2BEC1AF0B5C1E6FF090ED0EC19F0E6
:1026C000A6EF19F0010E106EE66E2FEC30F0E55219
:1026D000E7CF10F0105C05E137C4E6FF32EC30F0D4
:1026E000E552A6EF19F005EC1AF065EC2AF00101AD
:1026F000B86B0E0EB66FB76B140EB65D000EB75901
:1027000003E2C2EC19F0F8D7060EB86F140EB66FDC
:10271000B76B200EB65D000EB75903E2C2EC19F09C
:10272000F8D7B4EC36F0F3CFBAF1F4CFBBF1AFEC9D
:1027300036F0F3CFBCF1F4CFBDF1BBC110F0116A9C
:10274000BBC188F4BAC189F4F4CF10F0116AF4CF98
:102750008AF4F3CF8BF4050E00EC1AF0010F01019F
:10276000B96F090E106E0C6EB9C107F05EEC3EF049
:1027700003C0B9F10101035002E1090EB96FB9C1FB
:102780008CF46CEC2DF0000904E00401010E8D6F57
:1027900002D004018D6B80BE03D0010E8E6F01D07C
:1027A0008E6B0E0EF66E100EF76E0800F5CF8FF4DE
:1027B0000F0EF66E100EF76E0800F5CF90F4100EA7
:1027C000F66E100EF76E0800F5CF91F45FEC2AF06C
:1027D0000401926F62EC2AF012EC1DF00401936F79
:1027E00076EC2DF0000904E10401010E946F02D093
:1027F0000401946B210E00EC1AF00401956F0CECAF
:102800001AF0D6EC19F002E1000E04D0AFEC19F08A
:1028100001E0010E0009F5E112000401020E766FDD
:102820009BEC19F0D6EC19F002E1000E04D0AFECED
:1028300019F001E0010E0009F5E11200010137C4B1
:10284000C0F1BF6B040138510101BF11BF6F39C422
:10285000C1F1C15103E0C151400802E2400EC16F15
:1028600005EC1AF00401FA51FB1102E1000E04D04C
:10287000E9EC19F001E0010E0009F4E1C1C1E6FF45
:1028800050EC1AF0BFC1E6FFC0C1E6FF30EC35F0F6
:10289000106E050EE15E1050A6EF19F037C4C2F1BC
:1028A000010138C4C5F1C46B040139510101C425CB
:1028B000C46F000EC521C56FC2518F0A5AE0010ACC
:1028C00054E0030A4EE0010A48E0070A42E0010A28
:1028D0003CE0030A36E0010A30E00F0A2AE0010A70
:1028E00024E0030A1EE0010A18E0070A12E0010AC8
:1028F0000CE0030A06E0010A3CE1800EC36F020E01
:102900003BD0810EC36F040E37D0820EC36F060E0C
:1029100033D0830EC36F080E2FD0840EC36F0A0E00
:102920002BD0850EC36F0C0E27D0860EC36F0E0EF4
:1029300023D0870EC36F100E1FD0880EC36F120EE8
:102940001BD0890EC36F140E17D08A0EC36F160EDC
:1029500013D08B0EC36F180E0FD08C0EC36F1A0ED0
:102960000BD08D0EC36F1C0E07D08E0EC36F1E0EC4
:1029700003D08F0EC36F200EC26FC580C5B0FED7C7
:10298000300EBFEC19F0C3C1E6FF2EEC1AF0C5C142
:1029900010F0116A1050BFEC19F0C4C1E6FF2EEC24
:1029A0001AF00101C66BC251C65D0DE2040EC625C8
:1029B000EA6A360FE96E040EEA22EF50BFEC19F016
:1029C0000101C62BF0D7C584C5B4FED7C750040B90
:1029D00001E0010EF0EC19F0F9E1C580C5B0FED7B9
:1029E000300EBFEC19F0A40EBFEC19F0E66A2EEC25
:1029F0001AF0E66A2EEC1AF0C584C5B4FED7C750AB
:102A0000040B01E0010EF0EC19F0F9E1A6EF19F06A
:102A1000010137C4C9F1C86B040138510101C8254F
:102A2000C86F000EC921C96F39C4CAF105EC1AF08C
:102A30000101CA5103E0CA51400802E2400ECA6FC8
:102A4000CAC1E6FF760EE66E040EE66EC8C1E6FF6A
:102A5000C9C1E6FF85EC35F0106E050EE15E105041
:102A60000CEC1AF0D6EC19F002E1000E04D0AFEC39
:102A700019F001E0010E0009F5E1120002016451B4
:102A80004BE1040137511EE0FF0A2CE1010EE66E16
:102A9000210ED0EC19F0FEEC35F017EC2FF0E66AC1
:102AA000CDEC2EF0E552B9EC19F00401FA51FB110E
:102AB00002E1000E04D0E9EC19F001E0010E00097A
:102AC000DDE0F3D7E66A210ED0EC19F0FEEC35F02C
:102AD0000AEC2FF0F8EC19F00201010E646FB9EC6A
:102AE00019F0CCD750EC1AF037C4E6FFECEC2EF01E
:102AF000E552E552E552F8EC19F0B9EC19F0040191
:102B0000FA51FB1102E1000E04D0E9EC19F001E0EA
:102B1000010E0009B3E0F3D7646B120005EC1AF064
:102B20000401250E766F776F786F0CEC1AF0D6ECF7
:102B300019F002E1000E04D0AFEC19F001E0010E33
:102B40000009F5E1040136511FE0520E37EC1AF08E
:102B5000E8CF76F4300E37EC1AF0E8CF77F4A00E19
:102B600037EC1AF0E8CF78F40401010E796F0CEC21
:102B70001AF0D6EC19F002E1000E04D0AFEC19F017
:102B800001E0010E0009F5E112000401150E766F57
:102B9000D2DBD6EC19F002E1000E03D0E0DB01E05D
:102BA000010E0009F6E1D4DB840EC8D30401160E31
:102BB000766FC1DBD6EC19F002E1000E03D0CFDB5B
:102BC00001E0010E0009F6E1C3DBA80EB7D3040152
:102BD000170E766FB0DBD6EC19F002E1000E03D0D1
:102BE000BEDB01E0010E0009F6E1B2DBCC0EA6D39C
:102BF0000401180E766F9FDBD9DB02E1000E03D0D3
:102C0000AEDB01E0010E0009F7E1DCDB840E96D3B8
:102C10000401190E766F8FDBC9DB02E1000E03D0D1
:102C20009EDB01E0010E0009F7E192DB840E86D302
:102C300004011A0E766F7FDBB9DB02E1000E03D0D0
:102C40008EDB01E0010E0009F7E182DBA80E76D3EE
:102C500004011B0E766F6FDBA9DB02E1000E03D0CF
:102C60007EDB01E0010E0009F7E172DBD00E66D3D6
:102C700004011C0E766F5FDB99DB02E1000E03D0CE
:102C80006EDB01E0010E0009F7E19CDB040E56D378
:102C900004011D0E766F4FDB89DB02E1000E03D0CD
:102CA0005EDB01E0010E0009F7E152DB040E46D3C2
:102CB00004011E0E766F3FDB79DB02E1000E03D0CC
:102CC0004EDB01E0010E0009F7E142DB280E36D3AE
:102CD00004011F0E766F2FDB69DB02E1000E03D0CB
:102CE0003EDB01E0010E0009F7E132DB500E26D396
:102CF0000401270E766F400EE66E360EE66E040E69
:102D0000E66EE66A010EE66ECFEC25F0106E050E5B
:102D1000E15E1050F3CFFAF4F4CFFBF4400EE66E10
:102D2000760EE66E040EE66E010EE66E010EE66E9F
:102D3000CFEC25F0106E050EE15E1050F3CFFCF4E1
:102D4000F4CFFDF40401FC51FD1102E1000E08D0A6
:102D5000FCC4E9FFFDC4EAFFEF50800B01E0010E67
:102D6000000901E0EFD73BEC30F0C1EC32F0040E8B
:102D7000E66E0C0EE66E520EE66E48EC3BF0E55247
:102D8000E552E552E66A330EE66E520EE66E48EC08
:102D90003BF0E552E552E552010EE66E340EE66E6A
:102DA000520EE66E48EC3BF0E552E552E552010E5C
:102DB000E66E350EE66E520EE66E48EC3BF0E552DE
:102DC000E552E552100EE66E360EE66E520EE66ED7
:102DD00048EC3BF0E552E552E552000000000000EF
:102DE00012000401280E766F400EE66E360EE66E77
:102DF000040EE66EE66A010EE66ECFEC25F0106E6C
:102E0000050EE15E1050F3CFFAF4F4CFFBF4400E60
:102E1000E66E760EE66E040EE66E010EE66E010EAE
:102E2000E66ECFEC25F0106E050EE15E1050F3CF8C
:102E3000FCF4F4CFFDF40401FC51FD1102E1000E9D
:102E400008D0FCC4E9FFFDC4EAFFEF50800B01E0AD
:102E5000010E000901E0EFD73BEC30F0C1EC32F09D
:102E6000290EE66E0C0EE66E520EE66E48EC3BF056
:102E7000E552E552E552E66A330EE66E520EE66E14
:102E800048EC3BF0E552E552E552010EE66E340E99
:102E9000E66E520EE66E48EC3BF0E552E552E55226
:102EA000010EE66E350EE66E520EE66E48EC3BF015
:102EB000E552E552E552100EE66E360EE66E520E03
:102EC000E66E48EC3BF0E552E552E55200000000AA
:102ED000000012000401290E766F400EE66E360ED9
:102EE000E66E040EE66EE66A010EE66ECFEC25F0A5
:102EF000106E050EE15E1050F3CFFAF4F4CFFBF440
:102F0000400EE66E760EE66E040EE66E010EE66E7E
:102F1000010EE66ECFEC25F0106E050EE15E10504E
:102F2000F3CFFCF4F4CFFDF40401FC51FD1102E1F8
:102F3000000E08D0FCC4E9FFFDC4EAFFEF50800B8F
:102F400001E0010E000901E0EFD73BEC30F0C1ECED
:102F500032F04C0EE66E0C0EE66E520EE66E48EC4B
:102F60003BF0E552E552E552E66A330EE66E520E4C
:102F7000E66E48EC3BF0E552E552E552010EE66E96
:102F8000340EE66E520EE66E48EC3BF0E552E5522A
:102F9000E552010EE66E350EE66E520EE66E48EC18
:102FA0003BF0E552E552E552100EE66E360EE66E47
:102FB000520EE66E48EC3BF0E552E552E552000059
:102FC00000000000120021DAE0EC1DF04E0EF2D9F4
:102FD0000401766F4F0EEED90401776F500EEAD9D7
:102FE0000401786F590EE6D90401796F0A0E08DAE8
:102FF00004017A6FE5EC1DF00FDAD8D902E1000E7A
:1030000003D0ADD901E0010E0009F7E1120004017F
:10301000260E766F400EE66E360EE66E040EE66EF7
:10302000E66A010EE66ECFEC25F0106E050EE15E4D
:103030001050F3CFFAF4F4CFFBF4400EE66E760EA8
:10304000E66E040EE66E010EE66E010EE66ECFEC45
:1030500025F0106E050EE15E1050F3CFFCF4F4CFB6
:10306000FDF40401FC51FD1102E1000E08D0FCC486
:10307000E9FFFDC4EAFFEF50800B01E0010E0009FB
:1030800001E0EFD7FEEC35F07FEC2DF06CEC2AF090
:10309000E0EC1DF03BEC30F0FF0012000401375172
:1030A00003E015EC1DF002D01DEC1DF075EC31F0C5
:1030B0004DD10201010E636F120002016351120033
:1030C0000401FA51FB1102E1000E08D0FAC4E9FF35
:1030D000FBC4EAFFEF50800B01E0010E000901E0A4
:1030E00029D1040136512C0A01E10DD1070A01E171
:1030F000F4D0010A01E1EFD00C0A01E1EAD0030AA1
:1031000001E1E5D0010A01E1DED0070A01E1D8D0F2
:10311000010A01E1D2D0030A01E1CCD0010A01E1A8
:10312000C6D0090A01E1C0D0010A01E1BAD00F0AF4
:1031300001E1B4D0380A01E1AED0010A01E1A8D022
:10314000030A01E1A2D0010A01E19CD0070A01E1D2
:1031500096D0010A01E190D0030A01E18AD0010A68
:1031600001E184D00F0A01E17ED0010A01E178D0AB
:10317000030A73E0010A6FE0070A6AE0010A65E0EA
:10318000030A60E0010A5BE01F0A56E0010A51E011
:10319000030A4CE0010A47E0070A42E00D0A3EE05C
:1031A000010A39E0020A34E0010A2FE0070A06E0CA
:1031B000010A01E0ABD00DEC14F0BCD0400EE66E7D
:1031C000360EE66E040EE66EE66A010EE66ECFEC93
:1031D00025F0106E050EE15E1050F3CFFAF4F4CF37
:1031E000FBF4E0EC1DF03BEC30F06CEC2AF0659267
:1031F000656A840EE66E030EE66E26EC3CF0E55240
:10320000E552F29E0EEF00F095D01EEC14F092D035
:1032100008EC15F08FD04EEC14F08CD02FDC8AD057
:1032200073EC13F087D075EC1EF084D062EC13F0D1
:1032300081D014EC13F07ED024EC13F07BD042EC60
:1032400013F078D052EC13F075D052EC12F072D02B
:10325000BAEC12F06FD0B7DE6DD097DC2ADF6AD0FF
:10326000A5DC27DF67D0B3DC24DF64D0C1DC21DF3D
:1032700061D0CEDC1EDF5ED0DBDC1BDF5BD0E8DCA8
:1032800018DF58D0F5DC15DF55D002DD12DF52D043
:103290000FDD0FDF4FD01CDD0CDF4CD029DD09DF47
:1032A00049D09FDD06DF46D015DE03DF43D0FFECBB
:1032B0001DF040D01AEC1EF03DD030EC1EF03AD09C
:1032C00048EC1EF037D05AEC1EF0F3DE33D026DC8B
:1032D00031D09DDE2FD0E2DE2DD07AEC28F0400EEA
:1032E000E66E360EE66E040EE66EE66A010EE66ED9
:1032F000CFEC25F0106E050EE15E1050F3CFFAF41E
:10330000F4CFFBF417D039EC13F014D0400EE66E76
:10331000360EE66E040EE66EE66A010EE66ECFEC41
:1033200025F0106E050EE15E1050F3CFFAF4F4CFE5
:10333000FBF400D0120069D80CEF1AF0E66E7F0E95
:103340007AD8100EE66E360E1BEF1AF005EF1AF063
:103350003BEC30F0630EE66E7E0E1BEF1AF0FCC401
:10336000E9FFFDC4EAFFEF50800B1200E66E300E5D
:1033700089D081D8F3CFFAF4F4CFFBF41200E66ED3
:103380002EEF1AF0B6C1E6FFF4EC35F0E552E66E2A
:103390000101B85153D8B82BB62B000EB723120039
:1033A000E66EF8EC35F0E552E55212000401FC51EE
:1033B000FD111200E66E310EE66E68EC3BF0E55250
:1033C000E55212003BEC30F0730EE66E7E0E1BEF02
:1033D0001AF0FAC4E9FFFBC4EAFFEF50800B1200B9
:1033E000106E1F0EC5141010120028D83F0E1200C8
:1033F000010EE66EE66A26EC3CF0E552E55212005C
:10340000E66EF4EC35F0E552120035D81050F3CFEB
:10341000FAF4F4CFFBF41200400EE66E760EE66E80
:10342000040EE66E010EE66E34D81050F3CFFCF4B5
:10343000F4CFFDF41200E66E520E24D0EA6A760F45
:10344000E96E040EEA22E552E750EF6E1200E66ED6
:10345000D80EB6EF19F08ADFE5EF1DF026EC3DF04F
:10346000E5521200300E8BDF340EBFEF19F087DF0C
:103470000101CB6F1200400EE66E12D8E66A010E13
:1034800049EF1AF0E66E48EC3BF0E552E552E552A2
:103490001200E66ECFEC25F0106E050EE15E120014
:0A34A000360EE66E040EE66E120012
:0634AA00C0EC20F0E65228
:1034B000C00EDF6E060E8CEC20F00101546F070E7B
:1034C0008CEC20F00101556F080E8CEC20F001010E
:1034D000566F090E8CEC20F00101576F02012F6B23
:1034E000306B200EDCEC20F029E2220E2F25F66E48
:1034F000240E9EEC20F0E66EDFCFE6FF3DEC21F0DF
:103500007F0EDF14E66E310EE66E68EC3BF0E5529E
:10351000E5520101536F220E02012F25F66E240E93
:103520009EEC20F00101535D05E0DF0602012F074C
:10353000000E305BDF2AA3EC20F0D3D7FE0EDB04B5
:1035400002E16DEC21F057C1E6FFCE0E65EC20F0F4
:1035500056C1E6FFCF0E65EC20F055C1E6FFD00E58
:1035600065EC20F054C1E6FFD90E65EC20F054C1A3
:10357000E6FFDA0E65EC20F0E552C5EF20F0C7500B
:10358000040B01E0010E82EC20F0F9E1C580C5B02A
:10359000FED733EC21F0380E3AEC21F00201335122
:1035A0000BE0C582C5B2FED7310E7BEC20F00009DE
:1035B000F5E10201336BF2D72F6B306B240E2F5DD8
:1035C000130E30592AE26CEC3EF00101586FA40E44
:1035D00002012F25F66E100E9EEC20F00101585DC1
:1035E00011E1230E02012F1908E1130E301905E134
:1035F000C58AC588C5A80ED0FDD7C59AC588C5A8F7
:1036000009D0FDD70201010E346FC58AC588C5A84F
:1036100004D0FDD7A3EC20F0D1D7C584C5B4FED724
:10362000C750040B01E0010E82EC20F0F9E1020129
:1036300034511200C750040B01E0010E82EC20F05F
:10364000F9E1C580C5B0FED733EC21F0B80E3AECF5
:1036500021F002012F6B306B240E2F5D130E3059B9
:1036600007E2A40E2F25F66E100EFEEC20F0F4D724
:10367000C584C5B4FED7C750040B01E0010E82EC2F
:1036800020F0F9E11200C0EC20F0C580C5B0FED7F3
:1036900033EC21F0B80E3AEC21F0FE0EDB50040AB8
:1036A00040E0010A30E0070A20E0010A10E0020AC7
:1036B00046E102012F6B306B140EDCEC20F03FE290
:1036C000C80E2F25F66E230EFEEC20F0F5D7020172
:1036D0002F6B306B140EDCEC20F031E2EB0E2F255B
:1036E000F66E230EFEEC20F0F5D702012F6B306B47
:1036F0000F0EDCEC20F023E2DC0E2F25F66E230EFD
:10370000FEEC20F0F5D702012F6B306B140EDCECD1
:1037100020F015E20E0E2F25F66E240EFEEC20F0A2
:10372000F5D702012F6B306B0F0EDCEC20F007E2B7
:10373000FF0E2F25F66E230EFEEC20F0F5D7C58484
:10374000C5B4FED7C750040B01E0010E82EC20F097
:10375000F9E1C5EF20F0050E8CEC20F00101596F66
:10376000E66E84D8E5521200AFEC36F0F3CF5AF192
:10377000F4CF5BF10101E80ED880F354030EF4544A
:1037800004E2E80E5A6F030E5B6F020E5A5D000EE4
:103790005B5903E2020E5A6F5B6B010E106EE66E10
:1037A0002FEC30F0C9EC20F060E1080E0201116A44
:1037B0003125106E3251112201015A51105C5B51BA
:1037C00011580DE331C212F032C213F0080E125E2E
:1037D000000E135A12505A5D13505B5946E2020113
:1037E0002E6B01015E6B200E5E5D1DE25E51F66E7A
:1037F000F76AD890F636F736420EF626240EF722F0
:103800000900F5CF10F00800F5CF11F0020E105EA0
:10381000000E115A10505A5D11505B5902E25EC100
:103820002EF25E2BE0D71A0E02012E5D07E2E0ECCD
:1038300020F0F5CF5CF101015D6B07D001015C6BFD
:103840000201E0EC20F0F5CF5DF1010EE66E5C0EBA
:10385000E66E010EE66E170EE66E010EE66E50EC99
:1038600021F05AC131F25BC132F21200C0EC20F0FB
:103870006CEC2DF0000907E0FE0EDB50090FE76E3F
:10388000FE0EE7CFDBFFFE0EDB50110A63E0010AFC
:103890005DE01F0A57E0010A51E0030A4BE0010A0C
:1038A00045E0070A3FE0010A39E0030A33E0010A74
:1038B00055E00F0A2BE0010A25E0030A1FE0010A88
:1038C00019E0070A13E0010A0DE0030A07E0010A04
:1038D00045E1400E01015F6F606B44D0A8EC20F021
:1038E000070E3FD0A8EC20F00E0E3BD0A8EC20F045
:1038F000150E37D0A8EC20F01C0E33D0A8EC20F029
:10390000230E2FD0A8EC20F02A0E2BD0A8EC20F00C
:10391000310E27D0A8EC20F03F0E23D0A8EC20F0E9
:10392000460E1FD0A8EC20F04D0E1BD0A8EC20F0C6
:10393000540E17D0A8EC20F05B0E13D0A8EC20F0AA
:10394000620E0FD0A8EC20F0690E0BD0A8EC20F08E
:10395000700E07D0A8EC20F0770E03D0A8EC20F072
:10396000380E606F616B626B636B090E635D4DE2D5
:10397000400EE66E010EE66E010EE66E5FC1E6FFDA
:1039800060C1E6FF85EC35F068EC21F0C580C5B07C
:10399000FED7C750040B01E0010EB4DBFAE133ECB3
:1039A00021F0B40EA8DB62C110F0116A1050A3DB45
:1039B00061C1E6FF4CEC21F002012F6B306B400E31
:1039C000DCEC20F00AE2010E2F25E96E010E302119
:1039D000EA6EEF5090DBB7DBF2D7C584C5B4FED7F3
:1039E000C750040B01E0010E8DDBFAE1400E01012E
:1039F0005F255F6F000E6021606F200E6125616F93
:103A0000000E6221626F632BB0D7090E635D09E17E
:103A10003C0504E175EC31F008D803D075EC31F0C9
:103A20000CD8B3D302012D5112000201010E2D6FEB
:103A3000E66E6AEC31F0E552120002012D6B020EC7
:103A4000E66E6AEC31F0E55212000101416BE80EBE
:103A5000E66E030EE66E4B0EE66E010EACEF20F046
:103A60004B0EE66E010EB4DB01E1A9D0C750040B8A
:103A700001E0010E47DBFAE1C580C5B0FED733ECAB
:103A800021F0760E38DBC582C5B2FED7310E33DBAE
:103A90006CEC3EF00101646FC59AC588C5B8FED7CD
:103AA0006CEC3EF00101656FC58AC588C5B8FED7CC
:103AB000C584C5B4FED7C750040B01E0010E22DB5C
:103AC000FAE101016451666F676B64C167F1666B6F
:103AD00065516611666FE80E686F030E696F41519C
:103AE000030A64E0010A3BE0030A18E0010A5FE10F
:103AF0001E0E67AF02D0D89003D0665D000E6759E6
:103B000056E279EC2DF0000952E076EC2AF000093B
:103B10004EE00101010E416F95DB49D01E0E67AFEB
:103B200002D0D89003D0665D000E67593AE279EC76
:103B30002DF0000936E076EC2AF0000932E04F0E55
:103B4000E66E010E45DB03E07DDB0201352B040E42
:103B50000201355D2CE10101020E416F28D01E0EDD
:103B600067AF02D0D89003D0665D000E675919E2A6
:103B700079EC2DF0000915E076EC2AF0000911E04F
:103B8000FEEC35F06CEC2AF00E0EE66E32EC30F006
:103B9000E5520101030E416FB80E686F0B0E696F9D
:103BA00006D00101416B0201356B01D08B9068C1D9
:103BB000E6FF69C1E6FF4B0EE66E010ECDDA12009C
:103BC000580EE66ED80E65EF20F05C0EE66ED80E4D
:103BD0007CDA1F0EE66EDD0E78DA1F0EE66EDE0E64
:103BE00074DAF40EE66E010EE66EFCEC3BF0E55284
:103BF000E5521200080EE66ED70E65EF20F00401C4
:103C0000200E66DAF1DA02E1000E03D08ADA01E072
:103C1000010E0009F7E1D4DF240EE66ECA0E55DA74
:103C2000E66A51DBE66ACF0E50DA300EFCDA010E9E
:103C300098EF20F00401210E4BDAD6DA02E1000EF3
:103C400003D06FDA01E0010E0009F7E1B9DF480E99
:103C5000E66ECEDA34DB420EE6DA020E98EF20F0A2
:103C60000401220E35DAC0DA02E1000E03D059DA7F
:103C700001E0010E0009F7E1A3DF100EE66E33DB71
:103C8000030E56DA0D0EE66EB8EC2EF0E552120079
:103C90000401230E1DDAA8DA02E1000E03D041DA96
:103CA00001E0010E0009F7E18BDFE66A1CDB040E80
:103CB00098EF20F00401240E0BDA96DA02E1000EF0
:103CC00003D02FDA01E0010E0009F7E13BEC30F000
:103CD000C1EC32F075DFE66AD50EF7D93E0EE66E1E
:103CE000D60EF3D9050E98EF20F0000E0401375DD3
:103CF00006E33751080803E337C4E6FF01D0E66A5C
:103D0000050EE66EF8EC35F0E552E552050E04DAE4
:103D100001016A6F030E6A25E66E32EC30F0E5525F
:103D200002EF21F018DD4BD80FD819D8BAEF1EF0EA
:103D3000E80EB9DA430EE66E010E98D2E00EB3DA61
:103D4000360EE66E020E92D2E30E14DAF3CF6BF16A
:103D5000F4CF6CF1F4CF43F1F3CF44F11200D20E63
:103D600009DAF3CF6DF1F4CF6EF1F4CF45F1F3CF73
:103D700046F11200D30EFED9F3CF6FF1F4CF70F1FC
:103D8000F4CF47F1F3CF48F11200300EE66EDF0EAC
:103D900065EF20F0100EE66EDF0E65EF20F0010EED
:103DA000E66E380EE66E020EE66ED10EDDD1010E25
:103DB000E66E490EE66E010EE66ED10ED5D1D10E3D
:103DC000D9D9F3CF71F1F4CF72F1F4CF49F1F3CF38
:103DD0004AF11200090EA0D90101736FE8D90AE176
:103DE000280E39DA3E0E84DAF20E1DDA73C1E6FFD0
:103DF000CE0E6BD9E5EF1DF0090E8ED90101746F5F
:103E0000D6D905E16ADA74C1E6FFCE0E5ED9E5EFD8
:103E10001DF00A0E81D90101756F090E7DD90101CE
:103E2000766F0F0E7615766FF00E7515E8507611D9
:103E3000756FBDD90AE1380E0EDA7E0E59DAFA0E28
:103E4000F2D975C1E6FFCE0E40D9120099D9FA0E0B
:103E5000DB50100A65E01F0A5EE0010A57E0030A22
:103E600050E0010A49E0070A42E0010A3BE0030A88
:103E700034E0010A2DE00F0A26E0010A1FE0030AE0
:103E800018E0010A11E0070A0AE0010A03E0030A48
:103E90004CE14BD00101810E786F040E4AD0010134
:103EA000820E786F060E45D00101830E786F080EE2
:103EB00040D00101840E786F0A0E3BD00101850EBF
:103EC000786F0C0E36D00101860E786F0E0E31D051
:103ED0000101870E786F100E2CD00101880E786FCB
:103EE000120E27D00101890E786F140E22D0010125
:103EF0008A0E786F160E1DD001018B0E786F180E8A
:103F000018D001018C0E786F1A0E13D001018D0E9E
:103F1000786F1C0E0ED001018E0E786F1E0E09D028
:103F200001018F0E786F200E04D00101800E786F92
:103F3000020E776FC580C5B0FED795D978C1E6FF70
:103F4000ABD975D90101796B7751795D10E2FB0E20
:103F5000DBCFE9FFFC0EDBCFEAFFEF50CCD8FB0E46
:103F6000DB2AFC0E01E3DB2A0101792BEDD7C584A6
:103F7000C5B4FED7C750040B01E0010EC3D8FAE167
:103F8000C580C5B0FED76FD9A40E74D9C584C5B499
:103F9000FED7C750040B01E0010EB4D8FAE1F5D00A
:103FA000EFD80101010E7C6FC750040B01E0010E38
:103FB000A9D8FAE1C580C5B0FED755D9340E9BD833
:103FC00036D901017C510AE0C582C5B2FED7310E57
:103FD00092D80009F6E101017C6BF3D76CEC3EF05E
:103FE00001017A6F7B6BC59AC588C5B8FED76CECAA
:103FF0003EF001017D6F7AC111F0106AE850101097
:104000007A6F11C07BF1C58AC588C5B8FED7C58453
:10401000C5B4FED7C750040B01E0010E73D8FAE116
:104020007AC1F3FF7BC1F4FFB0D00101005112004F
:104030000101426B12000201316B326B1200040E5F
:1040400038D903E0050EAAD801E1A9DE050E31D961
:104050000AE0040EA3D807E018D905E1010EE66EC8
:1040600081EC28F0E552120010D905E1040EE66E4D
:1040700081EC28F0E552010EE66E3A0EE66E020E75
:10408000E66ED20E3BD8010EE66E3C0EE66E020ED8
:10409000E66ED30E33D8010EE66E3E0EE66E020ECD
:1040A000E5D046DE02D85DEF20F0010EE66E450E4B
:1040B000E66E010EE66ED20E57D0010EE66E470E8A
:1040C000E66E010EE66ED30E4FD0E66E3DEF21F0A8
:1040D000766F98D8400EE66E760EE66E040EE66EAB
:1040E000010EE66EE66ECFEC25F0F2D8F3CFFCF4CD
:1040F000F4CFFDF41200E66E4CEF21F0E66EE66AB6
:1041000050EF21F0106E1F0EC51410101200E66A59
:10411000C3D8E66A4CEF21F0E66EF4EC35F0E552D8
:104120001200FCC4E9FFFDC4EAFFEF50800B12004F
:10413000E66E43EC1BF0E552E5EF1DF03021F76E23
:104140000800F550120002012F2B000E3023120040
:104150000101400E5F6F1200E66EBCEC39F0E552D3
:10416000E552E552E5521200E66EE66A6FDE050E94
:10417000E15E1200E66EE66A13DFE552E5521200D8
:10418000D9CFE6FFE1CFD9FF1200E552E7CFD9FF43
:104190001200E552E7CF10F0105C1200116EE66ECF
:1041A00009EC29F0E552E7CF11F0115C120008DDAF
:1041B0005DEC18F0000912002F5D000E305912005E
:1041C0002E51F76A840FF66E240EF72208001200B3
:1041D000E66EF5EC39F0E552E55200091200FD0EED
:1041E000DBCFE6FF4CEF21F00401FC51FD11120082
:1041F000CA0E6BDFC00EE66E63EF21F09FDF7BDF40
:10420000A3EF20F0400EE66E360EE66E040EE66E6C
:10421000E66A010EE66ECFEC25F05AD8F3CFFAF439
:10422000F4CFFBF41200E66ED50E65EF20F0FD0E24
:10423000FE0EDBCF11F011C010F0116A10505BDFE1
:10424000EFEF20F0600EE66EEA0EE66E4F0EE66EC1
:10425000010EACEF20F0E66ECA0E37DF400EE66EC0
:10426000CB0E65EF20F0300E7BEF20F0E66EE30E14
:104270007EEF20F040DF87EF20F0300EE66E48EC56
:104280003BF0E552E552E5521200020E106EE66E6A
:104290008CEC28F0C9EF20F026EC3DF0E55212003E
:1042A000D5DD68EF21F0E66EC90E0FDF010EE66E78
:1042B0001200106EE66E09EC29F0C9EF20F0E66AF4
:1042C000CE0E65EF20F0CB0E00DF3E0E78EF21F032
:1042D000106E050EE15E10501200080EE66E88DFCB
:1042E000FE0E13EF21F084DFEADF800E13EF21F0E2
:0842F000E66ECD0E65EF20F033
:0842F80085EC26F0636A626A9E
:104300000F01C4EC26F0658C386B6EEC26F0659CD2
:10431000DF6AA5EC26F010E2DF50040DF3CFE9FFD1
:10432000F4CFEAFF000EE926040EEA22EE6AEE6AF6
:10433000EE6AEE6ADF2AEDD70F01160E266F62A62F
:1043400002D06296FCD70101936B986B996B9A6BC4
:104350006598080E8B6F040E8C6F816B806BE55235
:104360004BEF26F085EC26F00101800509E165BAE6
:1043700007D0626A0F01368136890101020E806F13
:104380006250040B06E00F013651040B02E0629408
:1043900090D865B24DD06250010B13E00F01365139
:1043A000010B0FE0A9DF0101040E806F0401200E54
:1043B000026F040E036F080E016F006B8C0E00136A
:1043C00062906250100B06E00F013651100B02E0B4
:1043D00067D862986250400B0AE00F013651400BDB
:1043E00006E0CBEC26F0730E3EEC26F0629C6250A9
:1043F000200B05E00F013651200B01E03DD8625043
:10440000020B0BE00F013651020B07E0CBEC26F05C
:10441000E668E66813EC27F0636A040E0101E76EB4
:104420008019E8AE02D0E73402D0E750805D02E2A6
:10443000A1981FD00F0136A71BD0DF6A040EDF5CE6
:1044400017E262A615D064CFA0F16296780E010142
:10445000A01502E13AD80AD0000EE66EE66AA00E78
:10446000E66E010EE66E720E3EEC26F0DF2AE6D70F
:10447000A198E5524BEF26F00F0126A10FD052EC88
:1044800026F0EF50800809E139EC26F0EF5084085F
:1044900004E152EC26F08C0EEF6E2691629A120027
:1044A0000F0136856298658288EC26F0750E3EEF26
:1044B00026F088EC26F0740EE1DB65920F0136954C
:1044C00062A402D06294FCD7120085EC26F0FD0EA7
:1044D0000101A0153EE17E0EA015E8407F0B040D02
:1044E000F3CF83F1F4CF84F1000E8327040E8423ED
:1044F00083C185F184C186F18575D4DBEF503C0B17
:10450000E842E8420D0823E1CDDBFAEC26F0EECFDD
:1045100010F0EFCF11F0280E101817E1040E11184B
:1045200014E12BEC27F0DF6AA5EC26F00EE2DF5059
:10453000ADEC26F0DF50EA6A200FE96E040EEA22A5
:10454000E552E750EF6EDF2AEFD70AD807D01AD826
:1045500005D0FD0EA015040801E122D8E5529BD339
:1045600088DBEF50800B02E084DBEF6A01018F6B88
:10457000906B946B956B936B67D8CADB030E7EDBF5
:1045800059EF24F0020E0101905D02E1E6EF24F004
:1045900037D80101A15102E1FFEF26F0A16B120013
:1045A000B4DB67DBEF50400B01E0010EDF6E010171
:1045B0008B75080E805D0CE122C438FF0F01385165
:1045C000000803E20101100E02D00101040E806F09
:1045D000900513E12FEC27F0A6D9020E01018F5DA3
:1045E00003E147DB840E07D0DF5003E142DBC80E56
:1045F00002D03FDB880EEF6E01D002D8E5524BD3DC
:1046000046DB0101906B35DBEF6A040E8B19106EEF
:104610008CC111F0DE6E8CC1DDFF34DBEF6A98AF28
:104620000CD09B519C1107E005D09CC1FAFF010101
:104630009B51F96EFADF0101989F020EE15C02E2E4
:10464000E16AE552E16E27D304012051600BE84294
:10465000E842E842E842E842000901E01200215144
:104660000C0A45E00B0A3FE00C0A31E0010A22E0A7
:104670000B0A1EE0020A1CE0030A18E0080A10E018
:10468000010A0CE00F0A08E0030A01E01200010130
:10469000938F080E806F1200D9EF23F042EF25F0C0
:1046A0000101810E916F010E926F0CD01AEF24F070
:1046B00078EF23F024510101916F926B820E9127C4
:1046C000010E92239381010E946F938F12000101CA
:1046D000938F04012451EA6A820FE96E010EEA22E7
:1046E00022C4EFFF120014DB020E3EEF26F0120090
:1046F0008ADB040EE1260401220510E120511F0B84
:1047000000090CE10101938F030E0401215D04E116
:104710000101010E9F6F02D001019F6B0401225124
:1047200041E120511F0B02083DE124510F0B00090C
:1047300039E00101938F040124BF05D0B8DA870E58
:10474000E926010E04D0B3DA8B0EE926010EF1DA68
:10475000030E215D03E196DA840E23D024510F0B62
:10476000116A260F106E0F0E1122020E10C0DBFF11
:10477000030E11C0DBFF020EDBCFE9FF030EDBCF20
:10478000EAFFEE90ED5224AF06D07CDAEF6ADF74D8
:1047900079DA400E06D076DA880EEF6EDF7472DAC0
:1047A000C80EEF6E040EE15C02E2E16AE552E16ED2
:1047B00072D2800E0401205D3CE10101C00E936FB6
:1047C00004012351030A1EE0010A09E0030A2FE154
:1047D0000101480E916F770E926F120E22D0E2DA2D
:1047E000F00EF626770EC1DA020E0101F76A912566
:1047F000F66E9251F7220900F5CF94F10A00F5CF39
:1048000095F11200030E225D0FE2CCDAF20EF626CD
:10481000770EABDA91C1F6FF92C1F7FF0800F550B1
:104820000101946F956B12000101936B120001015D
:10483000936B12002CDA0401286B296B20511F0B9B
:10484000020A11E0030A0CE0010A22E10101938F40
:104850000401288101019F051BE10401288318D070
:104860000101938F15D00101938F040124BF05D05E
:104870001EDA870EE926010E04D019DA8B0EE9261E
:10488000010E57DAFFD9EF50040B02E0010E286F3A
:10489000010193AF07D0280E916F040E926F9381A0
:1048A000020E946F020EE15C02E2E16AE552E16EF3
:1048B000F2D16598010193BF08D098AF02D080DA99
:1048C0002AD09DDAD6D9840E27D098BF2BD00401E8
:1048D00020AF24D0010194510401265D01019551BE
:1048E0000401275904E226C494F127C495F11BD88A
:1048F0000101010E906FB7DA800EEF6EA16BD2D975
:10490000EE52080EEF6EA7DACDD9840EEF6E010ECF
:10491000A16FA5DAAED9C80EEF6E1200010150DA10
:10492000C80EEF6E1200B3D90101080E945D000E9F
:1049300095590DE294C1DEFF95C1DDFF8F5102E173
:10494000010E03D08F0506E1020E8F6F03D0080E13
:10495000DE6EDD6A8ED9EF928CD9EF908AD9010E86
:10496000DB50EF1286D9EE52DFCFEFFF000EDB50A7
:10497000945F010EDB50955B280E9D6F040E9E6FB9
:1049800093B10FD016DA1BE091C1F6FF92C1F7FF89
:10499000912B000E92230800F550A9D9F3E2DB0613
:1049A000F1D707DA0CE091C1E9FF92C1EAFF912B40
:1049B000000E9223EF509BD9F4E2DB06F2D7020EF1
:1049C000E15C02E2E16AE552E16E65D160D96AD943
:1049D000EE52EFCFDFFFDFCF10F010500101995DF5
:1049E000000E9A5903E299C1DFFF09D0DF50106E23
:1049F000116AE850995D996F11509A599A6F010E9A
:104A0000DB6ADF50F36E010EDBCFF4FFF350F45C92
:104A100010E2010EDB50A1D996C1E9FF97C1EAFF70
:104A2000962B000E9723E552E750EF6E010EDB2A1E
:104A3000E8D7000ED8809955000E9A550DE20DD991
:104A400073D930D9EF50400B03E100DAC80E02D021
:104A5000FDD9880EEF6E0FD006DA840EEF6E9B51F3
:104A60009C1107E005D09CC1FAFF01019B51F96E32
:104A7000FADF0101989F020EE15C02E2E16AE55271
:104A8000E16E09D10101938F29D9010EE66EE66A24
:104A9000E66A820EE66E010EBED922C481F10101E2
:104AA000815103E1100E806F1200200E806F010E05
:104AB000E66EE66A810EE66E010EE66E010E3EEFD0
:104AC00026F0E5D8000EDE6E040EDD6EF8D8040D7B
:104AD000F350106E116A020E0F0B05E0D8901132E0
:104AE0001032E806FBE1D89010361136D890103617
:104AF0001136D9CFE9FFDACFEAFF1050EE26115078
:104B0000ED22C0D8EF9EFD0EDB5002E1E2D801D0CD
:104B1000ABD8EA22DECFEEFFDDCFEDFFB3D8EF9CBE
:104B2000B1D8040EE926000EEA22EF8C020EE15CF9
:104B300002E2E16AE552E16EAED0A9D8FE0EDB508A
:104B4000116A260F106E0F0EFAD89CD8FD0EDBCF1F
:104B5000EFFFDBA402D0E66A10D9FD0EDBA203D082
:104B6000010EE66E0AD9020EE15C02E2E16AE5524C
:104B7000E16E91D08CD8FE0EDB5005E140D979D89A
:104B8000840EEF6E05D09BD827D999D8010F24D970
:104B9000020EE15C02E2E16AE552E16E7CD077D878
:104BA000FD0EDB5002E060D801D093D8C2D86AD89D
:104BB00021D9FB0EDBCFEEFFFC0EDBCFEDFF62D881
:104BC000EE52FA0EDBCFEFFF400E5CD8E850EF1646
:104BD000880E58D8E850EF12FD0EDB5002E044D8A2
:104BE00001D077D8EA22EF74DECF10F0DDCF11F0DC
:104BF00010C0F3FF11C0F4FF020EE15C02E2E16AB3
:104C0000E552E16E48D0FFD865A812D001D9400E18
:104C1000EE16EE6AEE6AEE6AFBD8EE7C25D8EA2242
:104C2000EF74400E106EF4D81050EF16F1D8EF7CF0
:104C300032D01200010180510FE1656A0F01366B1D
:104C4000A3D8D08EA288A088F28E65B602D06586E1
:104C5000FCD70101010E806F1200F8D8EE52080E49
:104C6000EF6EF4D8FAEF26F0E5D88B0EE926010EA8
:104C700012008BC1E9FF8CC1EAFF1200E66EE66A02
:104C800013EF27F0DECFE9FFDDCFEAFF1200BBD83C
:104C9000020EE1261200E552E7CFD9FF1200D1D86B
:104CA00026EF27F083C1E9FF84C1EAFF12002451F7
:104CB0000F0BE96EEA6AD890E936EA361200FD0E6B
:104CC000DB50E824126EFE0EDB50040DF35012246C
:104CD0001200B0D8870EE926010E1200000EE66E13
:104CE000E66AE66A270EE66E0F0E0BEF27F0E66E19
:104CF0009DC1E9FF9EC1EAFF9D2B000E9E23E55258
:104D0000E750EF6EDF06010E12007DD8E65212006A
:104D1000000EE66EE66AE66EE66A1200EA22EE50E1
:104D2000EFCFEAFFE96E1200280EEE6E040EED6E74
:104D30001200EA22EECFDEFFEDCFDDFF12001122DE
:104D400010C0DEFF11C0DDFF1200DF50106E116ACF
:104D5000080E105C000E11581200EA6A280FE96E66
:104D6000040EEA22EF50E66E1200F7220900F5CF9A
:104D700091F10A00F5CF92F11200FE0EDBCFE6FFB3
:104D8000A0DEE552E5521200160E396F9F0E376F06
:104D90007B0E366F1200010EE66EE66A000EE66EBE
:104DA000E66A12002251F66EF76AD890F636F736A8
:104DB0001200D9CFE9FFDACFEAFFEE50ED10120072
:104DC000020E906F56DFEE52EF6A53DFC80EEF6EA1
:104DD00044DFAADF26EF27F0040DF3CF10F0F4CF65
:104DE00011F0000E1026040EAADF840E4BDFE850EF
:104DF000EF121200020EE926000EEA22120033D84A
:104E00008C0EEF6E1200D9CFE6FFE1CFD9FF120072
:104E10002BDF8EEF26F0E66EE0EC3DF0106E050E17
:104E2000E15E1050120066EC34F0106E060EE15E8A
:104E300010501200FE0EEA6ADB34FE0BEA36E96E11
:104E40001200200EEE6E040EED6E120085C1E9FF19
:104E500086C1EAFF120026DFCDDF21EF27F009DF50
:0C4E6000C9DF94EF26F0F9DE4FEF26F0DA
:044E6C000001010E32
:104E7000606F1200D9CFE6FFE1CFD9FFFC0EDB0651
:104E8000ADA2FED7FD0EDBCFE9FFFE0EDBCFEAFFC2
:104E9000EF50E66E13EC3EF0E552FD0EDBCFE9FF7E
:104EA000DB2AFE0EDBCFEAFF01E3DB2AFC0EDBCFC1
:104EB000F3FFDB06F3500009E3E1E552E7CFD9FF4A
:104EC0001200ACA205D0AC98000000000000AC8835
:104ED000120047DB04E14F0EBC5D01E1010C000C48
:104EE00040DB04E1520EBC5D01E1010C000C39DB3A
:104EF00004E1470EBC5D01E1010C000C32DB04E172
:104F0000460EBC5D01E1010C000C4D0E0401BB5DC1
:104F100004E1430EBC5D01E1010C000C4D0E0401E7
:104F2000BB5D04E1440EBC5D01E1010C000C410ECF
:104F30000401BB5D0AE1540EBC5D07E14F0EBD5D8F
:104F400004E14B0EBE5D01E1010C000C4F0E0401AB
:104F5000BB5D0AE14E0EBC5D07E14F0EBD5D04E195
:104F60004B0EBE5D01E1010C000CFBDA04E1490EC1
:104F7000BC5D01E1010C000C4A0E0401BB5D04E1C3
:104F8000540EBC5D01E1010C000CEBDA04E14A0EA9
:104F9000BC5D01E1010C000C500E0401BB5D07E19A
:104FA000460EBC5D04E1300EBD5D01E1010C000C5C
:104FB000500E0401BB5D07E14F0EBC5D04E1300EF5
:104FC000BD5D01E1010C000CD7DA07E1470EBC5DC5
:104FD00004E1310EBD5D01E1010C000CCDDA07E109
:104FE000470EBC5D04E1300EBD5D01E1010C000C1B
:104FF000C3DA07E14D0EBC5D04E1310EBD5D01E198
:10500000010C000CB9DA07E14D0EBC5D04E1300E75
:10501000BD5D01E1010C000CAFDA04E14F0EBC5D97
:1050200001E1010C000C530E0401BB5D04E1470ECD
:10503000BC5D01E1010C000C94DA04E1560EBC5D8C
:1050400001E1010C000C0401CF51070A3EE0010A06
:1050500036E0030A3AE0010A2BE0070A22E0010ADF
:1050600014E0030A0AE0010A01E0120047DA2DE128
:105070001B0E5CDA0401010E26D040DA26E19EEC1C
:105080001EF07EDA0401020E1ED0050E4BDA1DE181
:10509000D00EE66E040E69DA18E01B0E47DAC0EF98
:1050A0002AF02CDA12E11C0E41DA0401040E0BD0B6
:1050B00025DA0BE198EC1EF00401050E04D098EC03
:1050C0001EF00401070ECF6F120012000401D86B0E
:1050D000060ED85D05E2020E2EDA0E0E35DAF8D78E
:1050E000D86B0C0ED85D05E2080E25DA140E2CDA0A
:1050F000F8D71200070EE66EEB0EE66E000E84EF98
:105100002AF0D9CFE6FFE1CFD9FFFE0EDBCFCFF4F7
:10511000E552E7CFD9FF12000401CF51120004017C
:10512000050ECF6F1200D40EE66E040E1EDA4DE0AF
:10513000320E0401D96FDA6BB9513FE0080A3DE045
:105140000F0A36E0010A2FE0030A37E0010A1CE0EB
:10515000070A33E0010A10E0030A2FE10001F651CB
:1051600003E1B3D9040103D00401020EB96F580E54
:10517000D96F020EDA6F21D00001F75102E198D900
:105180001CD00401030E0DD06CEC2DF0000905E0DD
:10519000FCEC1EF0CFEC1EF002D0EAEC1EF0040195
:1051A000050EB96F0AD0D7EC1EF00401030E04D02F
:1051B000FCEC1EF00401080EB96FD9C4E6FFDAC496
:1051C000E6FFD40EE66E040EA5D97BDE23EF28F0B1
:1051D000B4EC36F0F3CFDBF4F4CFDCF40C0EE66E77
:1051E000F4EC35F0E55201080AE104012E0ED880F6
:1051F000DB55020EDC5503E2010EB96F02D004014B
:10520000B96B320EE66EE66AD40EE66E040E8AEFD5
:105210002AF00401B95112008ADE000905E026DEF9
:105220000001010EF66F120091DE000904E000019A
:10523000010EF76F120072DE00090AE0070EE66E3B
:10524000CF0EE66E000E60D90001010E616F1200F4
:105250005CDE00090FE0070EE66ED60EE66E000E6D
:1052600053D90001616B080E5DD901E1DFD0040163
:10527000070EA0D043DE000906E0070EE66E9A0E88
:10528000E66E000EAED033DE000906E0070EE66ED5
:10529000930EE66E000EA5D023DE00090FE0070E88
:1052A000E66E8C0EE66E000E2FD90401060EB96F65
:1052B000070E53D901E0BAD0010E11D00ADE000961
:1052C00011E0070EE66E850EE66E000E1DD9040194
:1052D000040EB96F020E41D901E0A8D0060EE66EA9
:1052E00010DF96D071DE00090AE0080EE66EB70EF8
:1052F000E66E000E09D90001010EF86F12006EDE95
:10530000000909E0080EE66EAF0EE66E000EFCD84E
:105310000001F86B12006CDE00090AE0080EE66E70
:10532000C70EE66E000EF0D80001010EF96F1200F4
:1053300069DE000909E0080EE66EBF0EE66E000E9B
:10534000E3D80001F96B120010DE000904E0D6D8A2
:105350006DE1140E5AD010DE000904E0CFD866E1EA
:10536000150E53D012DE000904E0C8D85FE1160E16
:105370004CD012DE00090DE0C1D802E1180ED6D8DB
:105380000001010E616FE66A0C0EE66EF8EC35F076
:105390002BD00EDE000910E0B1D802E1170EC6D8FE
:1053A000010EE66E0C0EE66EF8EC35F0E552E552B5
:1053B0000401030EB96F12002FDE00092BE0B4ECDC
:1053C00036F0F3CFDDF4F4CFDEF404012E0ED880F6
:1053D000F354020EF4540AE2070EE66EDD0EE66E9A
:1053E000000EE66E47DDE552E55212D02E0ED88053
:1053F000DD55020EDE551AE3070EE66EE40EE66E8C
:10540000000E82D87BD812E10C0EE66E32EC30F042
:10541000E552120008DE000902E066EF28F00CDE1B
:10542000000904E06BD802E11F0E80D812000001D1
:10543000F85112000001F95112000401BA51020A98
:1054400013E0030A0AE0010A01E01200AFCFDFF423
:105450000D0EDF5D29E1010E11D0AFCFDFF40A0E92
:10546000DF5D22E1020E0AD0AFCFDFF40001FA5176
:1054700007E10D0E0401DF5D03E1010EBA6F1200BA
:105480000A0E0401DF5D05E1BA6BC6DE0001FA6BAE
:1054900012000001FA51EA6ABB0FE96E040EEA221B
:1054A000DFC4EFFFFA2B120012000401BA6B1200E6
:1054B000070EE66E620EE66E000E84EF2AF0000123
:1054C000605112000001606B1200070EE66E690E5B
:1054D000E66E000E84EF2AF0070EE66E700EE66EA2
:1054E000000E84EF2AF0000161511200050E1AD857
:1054F00004E0F9DF000901E0010C000C010E106E60
:10550000E66E2FEC30F045D0E66EB4DCE552E552A5
:10551000E5521200E66EBCEC39F0E552E552E55278
:10552000E5521200106EE66E74DE33D0E66E32EC99
:1055300030F0E5521200D825EA6ABB0FE96E040E7E
:10554000EA22EF50E66E1200D825E66EF8EC35F050
:10555000E552E5520401D82B1200106EE66EDCDD38
:1055600018D0490E0401BB5D1200E66EF5EC39F06F
:10557000E552E55200091200420E0401BB5D120023
:10558000300EE66E750EE66ED00EE66E040E8AEFF5
:0C5590002AF0E552E7CF10F0105C12008A
:04559C0086DA0009A2
:1055A00003E10401010EE56F1200A6DA000907E12C
:1055B0007FDA000904E10401E35101E1010C000C70
:1055C000050EC8DA0401EE6F030EEE25A5EF2DF0EF
:1055D000050EC0DA010F0401EF6F02015F5107E011
:1055E000090E0401EF5D03E10201010E5D6F04018C
:1055F000EF51070801E2EF6B02015F6BEFC4E6FFBA
:10560000050E9DDA66DA000909E00B0EA3DA040143
:10561000F06FFADA030E0401F02503D0030E040143
:10562000EF2593DA02015D6B1200EAEC38F0000915
:105630001BE0BBDF000918E0E66AA5DA0401F16FA0
:10564000D00EE66E070E5EDA0401F151030A08E09F
:10565000010A06E0030A01E01200010EE06F1200E9
:105660009DDF0401040EE06F1200E2EC38F0000947
:1056700015E09BDF000912E0020EE66E84DA0401F9
:10568000F26F55DA0401F251010A05E0030A01E064
:105690001200010E01D0020EE26F12001200E66A43
:1056A00072DA0401F36FF3A3010C000CE66A6BDA03
:1056B0000401F46FF4A1010C000C010E28DA08E2D9
:1056C000F40EE66E010E1EDA0401070EE06F120002
:1056D0000401E56BE06B12000401E06B1200FCD9E1
:1056E000000906E000DAE66A0D0E29DA1D0E02D086
:1056F00078DA1E0E2ADA0401E06B1200010E07DAD6
:1057000008E10ADA09E10D0E20DA78DA050EE06F19
:10571000120054DA050EE06F12000401E06B020E75
:10572000E56F1200F9D912E149DA060EE06F010EB9
:10573000EED902E1110E06D06BDA08E1DAD90009E0
:1057400003E00E0EA5EF2DF0190EFFD91200010E89
:10575000DED905E10401030EE56F080E0BD058DA1F
:105760000DE1C7D9000908E0FEEC35F06CEC2AF039
:1057700045DA090EE06F12000401E06B120048DA0E
:1057800027E1050EE7D90401F66F080EF65D03E187
:105790000201010E5D6F9DD9000908E00B0EDAD9F8
:1057A0000401F66F31DA02015D6B0CD0F6C4E6FF3E
:1057B0000B0EC5D9080E28DA0401080EF66F020197
:1057C000010E5D6FA9D904E1030E0401F625BDD9D0
:1057D0000401E26B1200020ED0D903E1030EE66E63
:1057E0000ED0050ECAD90AE0070E116EE66E8CECDB
:1057F00028F0E552E7CF11F0115C04E1E66A81EC94
:1058000028F0E5520401E26B120002DA03E184D9C8
:1058100001E1DEDE0401E06B1200FAD903E1CED92A
:10582000020EE06F12000401E06B1200C7D9030EF4
:10583000E06F120071D901E1C3DE0401E06B1200D8
:10584000010EE66EA0D90401F76FF7B3010C000C4E
:10585000010EE66E98D90401F86FF8B1010C000C46
:105860000401E051090A54E00A0A50E0010A45E047
:10587000030A3AE0090A2AE00F0A1EE0010A18E0CA
:10588000030A0EE0010A04E0040A45E1CEDE43D03B
:1058900092D902E012DF3FD046D93DE02FDF3BD066
:1058A0008AD902E03ADF37D03ED935E03BDF33D04A
:1058B00082D931E04CDF2FD07ED904E12DD92BE104
:1058C0000EDF29D030D927E007DF25D074D907E0D3
:1058D000090E106EE66E92EC38F076D91CE20401E7
:1058E000020EE56FE06B17D0E1DE000902E08DDF0C
:1058F00012D019D910E091DF0ED0D8DE000902E0F5
:1059000092DF09D010D907E091DF05D093DF03D0F3
:105910000AD901E08B90E5EF38F0D9CFE6FFE1CF6F
:10592000D9FFF29EE150FD0FE96EFF0EDA20EA6E1C
:10593000EE50ED1007E02BD90309D36E090EC86EA7
:105940000C0E06D024D90009D36E130EC86E190EA2
:10595000E66EE66A5C0EE66E66EC3DF0E552E552F8
:10596000E5529F8A1BD9E6EC3CF0E552E55216D988
:10597000A4EC39F0E552E552F28EE552E7CFD9FFBB
:105980001200DFEC38F000094FE00401010EE36F74
:1059900057DF00090EE00401E10515E0010EE16F9B
:1059A000000E03D97CEC21F01AEC26F0D8D85C6B01
:1059B0000AD00401E15107E0E16BA1D8010EF5D84E
:1059C000CED8010E5C6F44DF000921E08FD80009BA
:1059D00027E00401E46B80D8000922E102D99CD8B9
:1059E00002E11E0EB2D8040E106EE66E09EC29F02C
:1059F000EBD80AE0050E116EE66E09EC29F0E552CF
:105A0000E7CF11F0115C0CE1CFEC1EF009D0010ED4
:105A1000106EE66E6BD8D8D803E00401010EE46F77
:105A20000401E36BD5EC38F012000401E251040AE2
:105A300029E0070A18E0010A0CE0030A04E0010A61
:105A400029E113DE27D01AEC2AF0000923E1C3DE96
:105A500021D017EC2AF000090AE08BD81BE067D8A8
:105A60000401030E0DD017EC2AF0000902E187DED5
:105A700011D07FD80FE05BD834EC20F00401040E85
:105A8000E26F08D017EC2AF0000904E151EC20F095
:105A90000401E26BDAEF38F00401E06BE56BE16BD7
:105AA000010EE46FE26BE36B12000401E55112009A
:105AB0000401E25112000401E3511200D9CFE6FFC4
:105AC000E1CFD9FFFE0EDBCFE5F4E552E7CFD9FFFA
:105AD000120002015D51120002015E51120002012A
:105AE000010E5E6F120002015E6B12000401E451B0
:105AF000120002015C5112000401E0511200659293
:105B0000656A1200E66EE60EE66E040E62D0106E56
:105B1000E66ECBDFE4EF2DF0010E106EE66E2FEC9B
:105B200030F0E4EF2DF0E60EE66E040E60D0D00EFD
:105B3000E66E070EE66EEA0EE66E040E4AD0E66EDC
:105B4000F8EC35F0E552E5521200E66E32EC30F03A
:105B5000E5521200E66EF4EC35F0E5521200840EC8
:105B6000E66E030EE66E26EC3CF0E552E5520201CD
:105B70001200EA0EE66E040E3AD0106EE66E8CEC61
:105B800028F0E4EF2DF0B7EC38F0E55212008F0E5C
:105B9000D3146009D36EFC0ED3141200FD0EDBCFBC
:105BA000E6FFFE0EDBCFE6FF1200E66EE66AB5DE2C
:105BB000E552E552120073DD00091200D00EE66EC8
:105BC000070EA0DF04011200E552E7CF10F0105CD1
:105BD0001200E66EBCEC39F0E552E552E552E552B2
:105BE00012007DDF010EE66E0D0E9FEF2DF0E66ECA
:105BF000F5EC39F0E552E55200091200B80EE66EF8
:105C00000B0E80DF04011200E66E050E9FEF2DF0F3
:065C1000020E87EF2DF0EB
:0A5C16000101010EF36FF3510CE0E1
:105C20007FDA460E95DA0101F36F95DA0101F31D73
:105C3000400BF36F8B82F2D712000101010EF46F5B
:105C4000F4510CE06DDA400E83DA0101F46F83DA6F
:105C5000010E0101F415F46F8B82F2D712002DDAD8
:105C60000101010EF56FF55114E05ADAB80E70DA41
:105C70000101F56F73DA0101F56F010EE66EFD0E9D
:105C8000DBCFE6FF15DA0101E81C400BF56F8B82D4
:105C9000EAD718D212DAFE0EDBCFE6FF1A0E3BDA95
:105CA00011D20101010EF66F8B92E66E120E50DAE0
:105CB0000101E81C400BF66F8B8212000101010EFE
:105CC000F76FF75109E02CDA100E42DA0101E81CF7
:105CD000400BF76F8B82F5D71200E66A1B0E8BEF35
:105CE00030F0EBD9FE0EDBCFE6FF190E14DAEAD165
:105CF000E4D9E4DFFE0EDB5002E0E66A02D0200EBB
:105D0000E66EEFDFE552CDDFDDD102016A51120010
:105D10006CEC2DF0000904E1EAD902E0F2D90BE1C4
:105D20006CEC2DF0000904E1E2D902E0EAD903E1CC
:105D3000FCEC1EF002D0EAEC1EF0E7DF000904E004
:105D40001FEC20F002016A6B15EC20F00101F86FE6
:105D500012000101010EF96F8B92E66E400EF8D928
:105D60000101F96F800EF915F96F8B82E85012006E
:105D7000A4D90101010EFA6FA1DFD2D9B00EE8D982
:105D80000101FA6FE8D90101FA6FE8D90101FA6F50
:105D9000E81C400BFA6F8B8295D18FD9C1D9A00E28
:105DA000D7D9C2D9D89010361136E806FBE1100ECB
:105DB000D89011321032E804FBE11050C9D9B4D99F
:105DC000D89010361136E806FBE111C010F0116AC8
:105DD0001050BED9C0D976D170D90101020EFB6F27
:105DE000FE0EDB50000815E2010EE66EFB51E76E79
:105DF000FC0EDBCFE9FFFD0EDBCFEAFFE750E92623
:105E0000000EEA22EF50A4D90101FB2BFE0EDB06A7
:105E1000E7D758D18B82120051DF5FDF200EE66E8C
:105E200039DFE552E66A5DDFE55251EF2EF046DFDD
:105E300077D9260E8DD90101FC6F010EE66E88D947
:105E40000101FC6FE81C400BFC6F8B8278D926ECBB
:105E50003CF0E552E552F1DE0BEF2EF00101EE5180
:105E60001F0A01E1EFD0010A01E1E1D0030A01E1DB
:105E7000DAD0010A01E1D3D0070A01E1CCD0010A4E
:105E800001E1C5D0030A01E1BED0010A01E1B7D0AA
:105E90000F0A01E1B0D0010A01E1A9D0030A01E132
:105EA000A2D0010A01E19BD0070A01E194D0010AC6
:105EB00001E18DD0030A01E182D0010A01E17BD02A
:105EC0001F0A01E174D0010A67E0030A5EE0010ADB
:105ED00058E0070A52E0010A4CE0030A46E0010AD2
:105EE00040E00F0A3AE0010A34E0030A2EE0010A1A
:105EF00027E0070A20E0010A04E0030A01E1AED02E
:105F0000ABD0C6D800090DE024DF000913E0020180
:105F10006B5103E1FDDE02016B6B0101010EEE6FBF
:105F2000120002016B5103E1F3DE02016B6B010110
:105F3000010EEE6F120007D901E17FD0030E7AD077
:105F400002D901E17AD0040E75D0FDD876E0050EB5
:105F500071D0F9D872E0060E6DD0F5D86EE0070E5C
:105F600069D0F1D86AE0080E65D0EDD866E0090E78
:105F700061D0E9D862E00A0E5DD0E5D85EE00B0E94
:105F800059D091D865E00C0E60D009EC1FF0E66A9C
:105F9000A8D85EE00D0E59D00201010E6B6F09EC1E
:105FA0001FF0050EE66E9DD853E00E0E4ED07BD846
:105FB0004FE00F0E4AD077D84BE0100E46D009ECD8
:105FC0001FF0040EE66E8DD843E0110E3ED06BD864
:105FD0003FE0120E3AD067D83BE0130E36D063D8BC
:105FE00037E0140E32D05FD833E0150E2ED05BD8D8
:105FF0002FE0160E2AD057D82BE0170E26D053D8F4
:1060000027E0180E22D04FD823E0190E1ED04BD80F
:106010001FE01A0E1AD047D81BE01C0E16D043D82A
:1060200017E01B0E12D08FD808E01D0E03D08BD8BE
:1060300004E01E0EE66E9CDEE55292EC1EF01BECB8
:1060400020F006D030D804E01F0EE66E91DEE55257
:106050000101020EEE6F1200020EEE6F120001013E
:10606000EE5112002AD8FE0EDBCFEEF12BD001014B
:10607000010EEE6F1200E66A29D8010EE66E66EF99
:1060800030F0E66A59D0E66A57D0010EE66E54D079
:10609000210EE66EF4EC35F0E5520101FE6FE8509A
:1060A00001E0000C010C09EC1FF0F2DF0009120006
:1060B0000AEC3DF0E552E5521200D9CFE6FFE1CF00
:1060C000D9FF1200E552E7CFD9FF120011DEE552E9
:1060D000900EE66E010EE66E26EC3CF0E552E552BF
:1060E0001200BFEC3AF0E552D3DF00091200080EAF
:1060F000106EE66E09EC29F0E552E7CF10F0105C67
:106100001200070E116EE66E09EC29F0E552E7CF9A
:1061100011F0115C1200E66EA2DDE552E5521200AC
:106120008B92010EE66E1200010EE66EFE0EDB5043
:10613000106E116A0A0E1200DBDDE5521200010E2C
:10614000E66EE66A12000201010E6A6F53EF30F04C
:10615000E66E58EF30F0F3DF58EF30F0010EE66EE8
:0A616000FE0EDBCFE6FF58EF30F033
:06616A000E01390EA06FCA
:106170009F6B050E9F5D1BE29FCEE6FFF4EC35F0B2
:10618000E552E66EA0CEE6FF01DAA0CEE6FF41DAE8
:106190000E01A16F9FCEE6FFF4EC35F0E5520E0143
:1061A000A15D02E1A02B01D09F079F2BE2D7120037
:1061B0000E01A26BA251106E116AD890115004E624
:1061C000800E105C000E115812E203DA0EE001DAC4
:1061D000E66EA2CEE6FFDAD9A2CEE6FF1ADA0E010B
:1061E000A36FF7D9A35D01E0A207A22BE3D71200AA
:1061F000200EE66E4A0E28EF33F0820EE66E5A0E3F
:1062000028EF33F08150010B0E01A56F050E106EC3
:10621000E66ECAEC3AF017DA2AE00E019A51030A48
:1062200014E0010A0AE0030A08E0010A20E18150B3
:10623000010BA46FE8500BE012D0A451A55D17E04C
:10624000030E9A6FA5CEA4FE12D0A45108E1020E4F
:10625000E66EBFEC3AF0E5520E01010E07D0010EDA
:10626000E66EBFEC3AF0E5520E01020E9A6FA1D82D
:1062700048D83BEF31F0960EE66E0E0EA3D929E01A
:106280000E01E80EA66F030EA76F9D51030A13E0DF
:10629000010A0EE0030A02E0010A13D0030EC0D97E
:1062A00010E1010EE66E070ED3D9030EE66E07D09D
:1062B000020EB6D906E1E66A070ECAD9E66A0AD81E
:1062C000E552A6CEE6FFA7CEE6FF960EE66E0E0ED0
:1062D00065D91200D9CFE6FFE1CFD9FFFE0EDBCFA3
:1062E0009DFEE552E7CFD9FF12000E019E6B120012
:1062F000E80EE66E030EE66E960EE66E0E0ECEEF1E
:1063000032F00E019C51010A1DE0010A01E0120069
:1063100053D915E10E01005114E15DEC18F00009AC
:1063200010E173D90EE0B80EE66E0B0EE66E920E1B
:10633000E66E0E0E33D90E01010E9C6F12000E0197
:10634000006B120039D92DE15DEC18F000092DE148
:106350005CD92BE0920EE66E0E0E34D926E00E01CB
:10636000005119E13BEC30F00CD9E0EC1DF0080EC7
:10637000106EE66E09EC29F066D904E076EC2DF09B
:10638000000903E1010EE66E01D0E66A55EC1AF051
:10639000E552E5EC1DF00E01010E006F0E019C6B45
:1063A00012000E019C6B0E01006B12000E019C6B23
:1063B00012000E019B51030A54E0010A33E0030A64
:1063C00013E0010A01E01200F7D80BE11ED909E041
:1063D00079EC2DF0000905E004D92AD90E01010E4F
:1063E00017D00E01816B1200E7D817E10ED915E026
:1063F00079EC2DF0000911E08E0EE66E0E0EE2D85B
:1064000010E00E01812B050E815D04E10E01020EEC
:106410009B6F1200E6D818EF33F00E019B6B0E0154
:10642000816B1200C9D818E1F0D816E079EC2DF094
:10643000000912E0FEEC35F06CEC2AF00E0EE66E70
:1064400032EC30F0E552B80EE66E0B0EE66EF0D888
:106450000E01030E9B6F12000E019B6B0E01816BF0
:1064600012008E0EE66E0E0EADD801E08B9012007B
:106470000E019A5112000E019B6B12000E019A6BD5
:1064800012000E01390EA96FAA6B050EAA5D12E269
:10649000ADD8E66EA9CEE6FF79D8A9CEE6FFB9D889
:1064A0000E01A86FA3D8A85D02E0AA0701D0A92B0E
:1064B000AA2BEBD7100EE66E360ECAD81DEF33F0BE
:1064C000390E0E01885D05E171D8150EB05D1BE037
:1064D00017D03A0E885D05E169D8110EB05D13E062
:1064E0000FD03B0E885D05E161D8180EB05D0BE062
:1064F00007D03C0E885D0AE159D8410EB05D03E03B
:106500000E01010E876F0E01882B0DD03D0E885DA8
:106510000AE14CD8100EB05D03E00E01010E876F4A
:106520000E01390E886F8A0EE66E0E0E4BD807E00C
:106530000E01892B030E895D01E1020C7ED80E014C
:1065400087051EE10E01B16B050EB15D16E2390E35
:10655000B125E66E5ED8E66E0E0150D8E552E750E2
:10656000EF6E4CD8EF50E66EB1CEE6FFF8EC35F0AA
:10657000E552E5520E01B12BE7D7FEEC35F0010CE8
:10658000000C16DEF2DD34DEFDEF30F0520EE66E6A
:1065900048EC3BF0E552E552E5521200E66EBCECE9
:1065A00039F0E552E552E552E552120088CEE6FF99
:1065B00030D80E01B06F1200010E106EE66E58DF7B
:1065C00023EF33F0E66EF5EC39F0E552E5520009C1
:1065D0001200A251EA6A010FE96E0E0EEA22EF5094
:1065E0001200600EE66EEA0EE66E1200AA51EA6A2A
:1065F000820FE96E0E0EEA22EF501200B151EA6AE4
:10660000AB0FE96E0E0EEA22120076EC2AF00009BA
:106610001200530EE66E68EC3BF0E552E5521200B4
:10662000E66E070E15D80E019E2B040E9E5D12001D
:106630008E0EE66E0E0ECEEF32F0D3DF8A0EE66ED1
:106640000E0ECEEF32F0E552E7CF10F0105C1200E4
:06665000E66EC6EF32F019
:0A665600DACFE4FFE2CFDAFFE9CF6C
:10666000E4FFEACFE4FFF6CFE4FFF7CFE4FFF5CF96
:10667000E4FFF3CFE4FFF4CFE4FFFACFE4FF00EE52
:1066800000F0100EE80403E3EECFE4FFFBD700EECA
:1066900010F0040EE80403E3EECFE4FFFBD7E6526C
:1066A000F2A402D027EC3AF09EAA02D01DEC2AF008
:1066B000A1A402D0A1948B90B2EC21F0E55200EE9F
:1066C00013F0040EE80403E3E5CFEDFFFBD700EE83
:1066D0000FF0100EE80403E3E5CFEDFFFBD7E5CFA5
:1066E000FAFFE5CFF4FFE5CFF3FFE5CFF5FFE5CF08
:1066F000F7FFE5CFF6FFE5CFEAFFE5CFE9FFE5CF0E
:10670000DAFF1100D8CFE4FFE0CFE4FFE46EDACF88
:10671000E4FFE652E552E5CFDAFFE550E5CFE0FFD2
:10672000E5CFD8FF100009D804007EEC37F0D38EF7
:10673000030000000000F8D71200D9CFE6FFE1CF38
:10674000D9FF020EE1260400580EDE6E020EDD6E49
:106750009B8CDFCF10F0DF06010EDBCF11F001E2E2
:10676000DB061050111001E0F4D70F0148690F014A
:106770009F0E496F0AD8020EE15C02E2E16AE5521F
:10678000E16EE552E7CFD9FF1200040092809282B9
:1067900092849296928A928C928E93809382939412
:1067A00093869388938A939C939E949094929494C6
:1067B000949C948E8B808A988A9AFA0EE66EE66A8A
:1067C00026EC3CF0E552E552800EE66E080EE66ED1
:1067D000FAEC3DF0E552E5528986ACEC39F0010E59
:1067E000E66EE66A8DEC2CF0E552E5526BEC39F082
:1067F000CAEC36F04CEC2DF0B3EC3AF03EEC32F053
:1068000055EC2AF08BEC38F040EC37F03BEC32F0F2
:1068100025EC1DF018EC20F0D6EC31F078EC31F0DE
:10682000A0D800EC3DF079EC3EF081EC3EF00CECB1
:106830002FF0EFEC35F037EC30F00401FA6BFB6B26
:106840000401FC6BFD6BC0801200200E0101E76E9D
:106850008019E8AE02D0E73402D0E750805D03E350
:106860006550020B01E0000C010C12001200120036
:106870001200E1EF3AF012001E0EE66E010EE66E17
:106880009DEC25F0E552E552400EE66E360EE66EC2
:10689000040EE66EE66A010EE66ECFEC25F0106E91
:1068A000050EE15E1050F3CFFAF4F4CFFBF41200C2
:1068B00065840401080EB76F070EB86FB707000EA6
:1068C000B85BB751B811FAE165941200D9CFE6FF71
:1068D000E1CFD9FFFD0EDBCF06F0FE0EDBCF07F0D8
:1068E000720E061801E1075033E0E868061802E16D
:1068F000E86807182BE0740E061801E1075024E041
:10690000750E061801E107501DE0730E061801E12F
:10691000075016E0030E061801E107500FE0020EC3
:10692000061801E1075008E0010E061801E10750C2
:1069300001E010D0A1DF0FD09EDF0DD09ADF0BD089
:1069400096DF09D092DF07D091DF05D091DF03D029
:10695000000001D000D0010E00D0E552E7CFD9FFF2
:10696000120085988580859285948586859E858888
:06697000A194A0841200B6
:0A6976005CD9C750040B01E0010ECC
:106980004BD9FAE1C580C5B0FED75BD93CD949D90E
:10699000FC0EDBCFE6FF26EC3DF0E552C584C5B426
:1069A000FED7C750040B01E0010E36D9FAE14CD9ED
:1069B00044D13ED9C750040B01E0010E2DD9FAE1B4
:1069C000C580C5B0FED7C750040B01E0010E24D925
:1069D000FAE137D9C750040B01E0010E1DD9FAE1E5
:1069E00012D9C750040B01E0010E16D9FAE119D9EA
:1069F000C750040B01E0010E0FD9FAE1C582C5B200
:106A0000FED7C750040B01E0010E06D9FAE1A10E32
:106A100033D9C750040B01E0010EFED8FAE16CEC4B
:106A20003EF00201606FC750040B01E0010EF4D884
:106A3000FAE1C58AC588C5B8FED7C750040B01E086
:106A4000010EEAD8FAE1C584C5B4FED7C750040BDD
:106A500001E0010EE1D8FAE1F7D802016051EDD072
:106A6000E7D8C750040B01E0010ED6D8FAE1C58083
